{
    "abi": [
        {
            "type": "constructor",
            "inputs": [
                {
                    "name": "_factory",
                    "type": "address",
                    "internalType": "address"
                },
                {
                    "name": "_initialGatewayUrl",
                    "type": "string",
                    "internalType": "string"
                },
                {
                    "name": "initialOwner",
                    "type": "address",
                    "internalType": "address"
                }
            ],
            "stateMutability": "nonpayable"
        },
        {
            "type": "function",
            "name": "addGatewayUrl",
            "inputs": [
                {
                    "name": "_newUrl",
                    "type": "string",
                    "internalType": "string"
                }
            ],
            "outputs": [],
            "stateMutability": "nonpayable"
        },
        {
            "type": "function",
            "name": "addSigner",
            "inputs": [
                {
                    "name": "_signer",
                    "type": "address",
                    "internalType": "address"
                }
            ],
            "outputs": [],
            "stateMutability": "nonpayable"
        },
        {
            "type": "function",
            "name": "callOffchain",
            "inputs": [
                {
                    "name": "input",
                    "type": "bytes",
                    "internalType": "bytes"
                }
            ],
            "outputs": [
                {
                    "name": "",
                    "type": "bytes",
                    "internalType": "bytes"
                }
            ],
            "stateMutability": "view"
        },
        {
            "type": "function",
            "name": "callOffchainWithProof",
            "inputs": [
                {
                    "name": "response",
                    "type": "bytes",
                    "internalType": "bytes"
                },
                {
                    "name": "extraData",
                    "type": "bytes",
                    "internalType": "bytes"
                }
            ],
            "outputs": [
                {
                    "name": "",
                    "type": "bytes",
                    "internalType": "bytes"
                }
            ],
            "stateMutability": "view"
        },
        {
            "type": "function",
            "name": "factory",
            "inputs": [],
            "outputs": [
                {
                    "name": "",
                    "type": "address",
                    "internalType": "address"
                }
            ],
            "stateMutability": "view"
        },
        {
            "type": "function",
            "name": "gatewayUrls",
            "inputs": [
                {
                    "name": "",
                    "type": "uint256",
                    "internalType": "uint256"
                }
            ],
            "outputs": [
                {
                    "name": "",
                    "type": "string",
                    "internalType": "string"
                }
            ],
            "stateMutability": "view"
        },
        {
            "type": "function",
            "name": "owner",
            "inputs": [],
            "outputs": [
                {
                    "name": "",
                    "type": "address",
                    "internalType": "address"
                }
            ],
            "stateMutability": "view"
        },
        {
            "type": "function",
            "name": "removeGatewayUrl",
            "inputs": [
                {
                    "name": "index",
                    "type": "uint256",
                    "internalType": "uint256"
                }
            ],
            "outputs": [],
            "stateMutability": "nonpayable"
        },
        {
            "type": "function",
            "name": "removeSigner",
            "inputs": [
                {
                    "name": "_signer",
                    "type": "address",
                    "internalType": "address"
                }
            ],
            "outputs": [],
            "stateMutability": "nonpayable"
        },
        {
            "type": "function",
            "name": "renounceOwnership",
            "inputs": [],
            "outputs": [],
            "stateMutability": "nonpayable"
        },
        {
            "type": "function",
            "name": "signers",
            "inputs": [
                {
                    "name": "",
                    "type": "address",
                    "internalType": "address"
                }
            ],
            "outputs": [
                {
                    "name": "",
                    "type": "bool",
                    "internalType": "bool"
                }
            ],
            "stateMutability": "view"
        },
        {
            "type": "function",
            "name": "transferOwnership",
            "inputs": [
                {
                    "name": "newOwner",
                    "type": "address",
                    "internalType": "address"
                }
            ],
            "outputs": [],
            "stateMutability": "nonpayable"
        },
        {
            "type": "event",
            "name": "OwnershipTransferred",
            "inputs": [
                {
                    "name": "previousOwner",
                    "type": "address",
                    "indexed": true,
                    "internalType": "address"
                },
                {
                    "name": "newOwner",
                    "type": "address",
                    "indexed": true,
                    "internalType": "address"
                }
            ],
            "anonymous": false
        },
        {
            "type": "error",
            "name": "ECDSAInvalidSignature",
            "inputs": []
        },
        {
            "type": "error",
            "name": "ECDSAInvalidSignatureLength",
            "inputs": [
                {
                    "name": "length",
                    "type": "uint256",
                    "internalType": "uint256"
                }
            ]
        },
        {
            "type": "error",
            "name": "ECDSAInvalidSignatureS",
            "inputs": [
                {
                    "name": "s",
                    "type": "bytes32",
                    "internalType": "bytes32"
                }
            ]
        },
        {
            "type": "error",
            "name": "OffchainLookup",
            "inputs": [
                {
                    "name": "sender",
                    "type": "address",
                    "internalType": "address"
                },
                {
                    "name": "urls",
                    "type": "string[]",
                    "internalType": "string[]"
                },
                {
                    "name": "callData",
                    "type": "bytes",
                    "internalType": "bytes"
                },
                {
                    "name": "callbackFunction",
                    "type": "bytes4",
                    "internalType": "bytes4"
                },
                {
                    "name": "extraData",
                    "type": "bytes",
                    "internalType": "bytes"
                }
            ]
        },
        {
            "type": "error",
            "name": "OwnableInvalidOwner",
            "inputs": [
                {
                    "name": "owner",
                    "type": "address",
                    "internalType": "address"
                }
            ]
        },
        {
            "type": "error",
            "name": "OwnableUnauthorizedAccount",
            "inputs": [
                {
                    "name": "account",
                    "type": "address",
                    "internalType": "address"
                }
            ]
        }
    ],
    "bytecode": {
        "object": "0x608060405234801561001057600080fd5b506040516114af3803806114af83398101604081905261002f91610168565b806001600160a01b03811661005e57604051631e4fbdf760e01b81526000600482015260240160405180910390fd5b610067816100e6565b50600180546001600160a01b0319166001600160a01b0385161781556002805491820181556000527f405787fa12a823e0f2b7631cc41b3ba8828b3321ca811111fa75cd3aa3bb5ace016100bb83826102df565b506001600160a01b03166000908152600360205260409020805460ff191660011790555061039d9050565b600080546001600160a01b038381166001600160a01b0319831681178455604051919092169283917f8be0079c531659141344cd1fd0a4f28419497f9722a3daafe3b4186f6b6457e09190a35050565b80516001600160a01b038116811461014d57600080fd5b919050565b634e487b7160e01b600052604160045260246000fd5b60008060006060848603121561017d57600080fd5b61018684610136565b60208501519093506001600160401b038111156101a257600080fd5b8401601f810186136101b357600080fd5b80516001600160401b038111156101cc576101cc610152565b604051601f8201601f19908116603f011681016001600160401b03811182821017156101fa576101fa610152565b60405281815282820160200188101561021257600080fd5b60005b8281101561023157602081850181015183830182015201610215565b5060006020838301015280945050505061024d60408501610136565b90509250925092565b600181811c9082168061026a57607f821691505b60208210810361028a57634e487b7160e01b600052602260045260246000fd5b50919050565b601f8211156102da57806000526020600020601f840160051c810160208510156102b75750805b601f840160051c820191505b818110156102d757600081556001016102c3565b50505b505050565b81516001600160401b038111156102f8576102f8610152565b61030c816103068454610256565b84610290565b6020601f82116001811461034057600083156103285750848201515b600019600385901b1c1916600184901b1784556102d7565b600084815260208120601f198516915b828110156103705787850151825560209485019460019092019101610350565b508482101561038e5786840151600019600387901b60f8161c191681555b50505050600190811b01905550565b611103806103ac6000396000f3fe608060405234801561001057600080fd5b50600436106100b45760003560e01c8063a4d9aec811610071578063a4d9aec81461016a578063add023d11461017d578063b23035c914610190578063c45a0155146101a3578063eb12d61e146101b6578063f2fde38b146101c957600080fd5b80630e316ab7146100b9578063399dadc5146100ce578063715018a6146100f7578063736c0d5b146100ff5780638da5cb5b14610132578063a2b8fb2414610157575b600080fd5b6100cc6100c73660046109db565b6101dc565b005b6100e16100dc366004610a53565b610205565b6040516100ee9190610b08565b60405180910390f35b6100cc61029e565b61012261010d3660046109db565b60036020526000908152604090205460ff1681565b60405190151581526020016100ee565b6000546001600160a01b03165b6040516001600160a01b0390911681526020016100ee565b6100e1610165366004610b1b565b6102b2565b6100cc610178366004610b1b565b61035e565b6100cc61018b366004610bc2565b61048a565b6100e161019e366004610c12565b6104d2565b60015461013f906001600160a01b031681565b6100cc6101c43660046109db565b610550565b6100cc6101d73660046109db565b61057c565b6101e46105ba565b6001600160a01b03166000908152600360205260409020805460ff19169055565b6060600080610216858589896105e7565b6001600160a01b038216600090815260036020526040902054919350915060ff166102945760405162461bcd60e51b8152602060048201526024808201527f5369676e617475726556657269666965723a20496e76616c6964207369676e616044820152637475726560e01b60648201526084015b60405180910390fd5b9695505050505050565b6102a66105ba565b6102b060006106c4565b565b600281815481106102c257600080fd5b9060005260206000200160009150905080546102dd90610c53565b80601f016020809104026020016040519081016040528092919081815260200182805461030990610c53565b80156103565780601f1061032b57610100808354040283529160200191610356565b820191906000526020600020905b81548152906001019060200180831161033957829003601f168201915b505050505081565b6103666105ba565b6002546001106103c35760405162461bcd60e51b815260206004820152602260248201527f4d757374206b656570206174206c65617374206f6e6520676174657761792055604482015261149360f21b606482015260840161028b565b60025481106104045760405162461bcd60e51b815260206004820152600d60248201526c092dcecc2d8d2c840d2dcc8caf609b1b604482015260640161028b565b6002805461041490600190610c8d565b8154811061042457610424610cae565b906000526020600020016002828154811061044157610441610cae565b9060005260206000200190816104579190610d13565b50600280548061046957610469610df2565b600190038181906000526020600020016000610485919061098d565b905550565b6104926105ba565b600280546001810182556000919091527f405787fa12a823e0f2b7631cc41b3ba8828b3321ca811111fa75cd3aa3bb5ace016104ce8282610e08565b5050565b6060600063b23035c960e01b84846040516024016104f1929190610ebe565b60408051601f198184030181529181526020820180516001600160e01b03166001600160e01b0319909416939093179092529051630556f18360e41b815290915061028b903090600290849063399dadc560e01b908290600401610eed565b6105586105ba565b6001600160a01b03166000908152600360205260409020805460ff19166001179055565b6105846105ba565b6001600160a01b0381166105ae57604051631e4fbdf760e01b81526000600482015260240161028b565b6105b7816106c4565b50565b6000546001600160a01b031633146102b05760405163118cdaa760e01b815233600482015260240161028b565b600060608180806105fa86880188611032565b925092509250600061064e61064830858d8d8080601f0160208091040260200160405190810160405280939291908181526020018383808284376000920191909152508b9250610714915050565b8361078c565b905042836001600160401b031610156106b55760405162461bcd60e51b8152602060048201526024808201527f5369676e617475726556657269666965723a205369676e6174757265206578706044820152631a5c995960e21b606482015260840161028b565b99929850919650505050505050565b600080546001600160a01b038381166001600160a01b0319831681178455604051919092169283917f8be0079c531659141344cd1fd0a4f28419497f9722a3daafe3b4186f6b6457e09190a35050565b815160209283012081519183019190912060408051601960f81b8186015260609690961b6bffffffffffffffffffffffff1916602287015260c09490941b6001600160c01b0319166036860152603e850191909152605e8085019190915282518085039091018152607e909301909152815191012090565b60008060008061079c86866107b8565b9250925092506107ac8282610805565b50909150505b92915050565b600080600083516041036107f25760208401516040850151606086015160001a6107e4888285856108be565b9550955095505050506107fe565b50508151600091506002905b9250925092565b6000826003811115610819576108196110b7565b03610822575050565b6001826003811115610836576108366110b7565b036108545760405163f645eedf60e01b815260040160405180910390fd5b6002826003811115610868576108686110b7565b036108895760405163fce698f760e01b81526004810182905260240161028b565b600382600381111561089d5761089d6110b7565b036104ce576040516335e2f38360e21b81526004810182905260240161028b565b600080807f7fffffffffffffffffffffffffffffff5d576e7357a4501ddfe92f46681b20a08411156108f95750600091506003905082610983565b604080516000808252602082018084528a905260ff891692820192909252606081018790526080810186905260019060a0016020604051602081039080840390855afa15801561094d573d6000803e3d6000fd5b5050604051601f1901519150506001600160a01b03811661097957506000925060019150829050610983565b9250600091508190505b9450945094915050565b50805461099990610c53565b6000825580601f106109a9575050565b601f0160209004906000526020600020908101906105b791905b808211156109d757600081556001016109c3565b5090565b6000602082840312156109ed57600080fd5b81356001600160a01b0381168114610a0457600080fd5b9392505050565b60008083601f840112610a1d57600080fd5b5081356001600160401b03811115610a3457600080fd5b602083019150836020828501011115610a4c57600080fd5b9250929050565b60008060008060408587031215610a6957600080fd5b84356001600160401b03811115610a7f57600080fd5b610a8b87828801610a0b565b90955093505060208501356001600160401b03811115610aaa57600080fd5b610ab687828801610a0b565b95989497509550505050565b6000815180845260005b81811015610ae857602081850181015186830182015201610acc565b506000602082860101526020601f19601f83011685010191505092915050565b602081526000610a046020830184610ac2565b600060208284031215610b2d57600080fd5b5035919050565b634e487b7160e01b600052604160045260246000fd5b6000806001600160401b03841115610b6457610b64610b34565b50604051601f19601f85018116603f011681018181106001600160401b0382111715610b9257610b92610b34565b604052838152905080828401851015610baa57600080fd5b83836020830137600060208583010152509392505050565b600060208284031215610bd457600080fd5b81356001600160401b03811115610bea57600080fd5b8201601f81018413610bfb57600080fd5b610c0a84823560208401610b4a565b949350505050565b60008060208385031215610c2557600080fd5b82356001600160401b03811115610c3b57600080fd5b610c4785828601610a0b565b90969095509350505050565b600181811c90821680610c6757607f821691505b602082108103610c8757634e487b7160e01b600052602260045260246000fd5b50919050565b818103818111156107b257634e487b7160e01b600052601160045260246000fd5b634e487b7160e01b600052603260045260246000fd5b601f821115610d0e57806000526020600020601f840160051c81016020851015610ceb5750805b601f840160051c820191505b81811015610d0b5760008155600101610cf7565b50505b505050565b818103610d1e575050565b610d288254610c53565b6001600160401b03811115610d3f57610d3f610b34565b610d5381610d4d8454610c53565b84610cc4565b6000601f821160018114610d8a5760008315610d6f5750848201545b600184901b600019600386901b1c198216175b855550610d0b565b600085815260209020601f19841690600086815260209020845b83811015610dc45782860154825560019586019590910190602001610da4565b5085831015610de25781850154600019600388901b60f8161c191681555b5050505050600190811b01905550565b634e487b7160e01b600052603160045260246000fd5b81516001600160401b03811115610e2157610e21610b34565b610e2f81610d4d8454610c53565b6020601f821160018114610e615760008315610d6f575081850151600184901b600019600386901b1c19821617610d82565b600084815260208120601f198516915b82811015610e915787850151825560209485019460019092019101610e71565b5084821015610eaf5786840151600019600387901b60f8161c191681555b50505050600190811b01905550565b60208152816020820152818360408301376000818301604090810191909152601f909201601f19160101919050565b600060a0820160018060a01b038816835260a0602084015280875480835260c08501915060c08160051b860101925088600052602060002060005b82811015610fcc5760bf1987860301845260008254610f4681610c53565b808852600182168015610f605760018114610f7c57610fb3565b60ff19831660208a0152602082151560051b8a01019350610fb3565b85600052602060002060005b83811015610faa5781546020828d010152600182019150602081019050610f88565b8a016020019450505b5091965050506020939093019260019182019101610f28565b505050508281036040840152610fe28187610ac2565b6001600160e01b031986166060850152905082810360808401526110068185610ac2565b98975050505050505050565b600082601f83011261102357600080fd5b610a0483833560208501610b4a565b60008060006060848603121561104757600080fd5b83356001600160401b0381111561105d57600080fd5b61106986828701611012565b93505060208401356001600160401b038116811461108657600080fd5b915060408401356001600160401b038111156110a157600080fd5b6110ad86828701611012565b9150509250925092565b634e487b7160e01b600052602160045260246000fdfea2646970667358221220e1a2cfd5206080977110bd411f9be357c4815d4bac111dcdf585551ae589f51464736f6c634300081b0033",
        "linkReferences": {}
    },
    "methodIdentifiers": {
        "addGatewayUrl(string)": "add023d1",
        "addSigner(address)": "eb12d61e",
        "callOffchain(bytes)": "b23035c9",
        "callOffchainWithProof(bytes,bytes)": "399dadc5",
        "factory()": "c45a0155",
        "gatewayUrls(uint256)": "a2b8fb24",
        "owner()": "8da5cb5b",
        "removeGatewayUrl(uint256)": "a4d9aec8",
        "removeSigner(address)": "0e316ab7",
        "renounceOwnership()": "715018a6",
        "signers(address)": "736c0d5b",
        "transferOwnership(address)": "f2fde38b"
    },
    "id": 30
}